{
    "_format": "hh-sol-artifact-1",
    "contractName": "Fee",
    "sourceName": "contracts/Fee.sol",
    "abi": [
        {
            "inputs": [
                {
                    "internalType": "address",
                    "name": "_feeCollectorAddress",
                    "type": "address"
                }
            ],
            "stateMutability": "nonpayable",
            "type": "constructor"
        },
        {
            "inputs": [],
            "name": "NoAccess",
            "type": "error"
        },
        {
            "inputs": [],
            "name": "NoAddress0",
            "type": "error"
        },
        {
            "inputs": [],
            "name": "creationFee",
            "outputs": [
                {
                    "internalType": "uint256",
                    "name": "",
                    "type": "uint256"
                }
            ],
            "stateMutability": "view",
            "type": "function"
        },
        {
            "inputs": [],
            "name": "feeCollectorAddress",
            "outputs": [
                {
                    "internalType": "address",
                    "name": "",
                    "type": "address"
                }
            ],
            "stateMutability": "view",
            "type": "function"
        },
        {
            "inputs": [],
            "name": "getChainId",
            "outputs": [
                {
                    "internalType": "uint256",
                    "name": "",
                    "type": "uint256"
                }
            ],
            "stateMutability": "view",
            "type": "function"
        },
        {
            "inputs": [],
            "name": "getCreationFee",
            "outputs": [
                {
                    "internalType": "uint256",
                    "name": "",
                    "type": "uint256"
                }
            ],
            "stateMutability": "view",
            "type": "function"
        },
        {
            "inputs": [],
            "name": "getCreationFeeARB",
            "outputs": [
                {
                    "internalType": "uint256",
                    "name": "",
                    "type": "uint256"
                }
            ],
            "stateMutability": "view",
            "type": "function"
        },
        {
            "inputs": [],
            "name": "getCreationFeeETH",
            "outputs": [
                {
                    "internalType": "uint256",
                    "name": "",
                    "type": "uint256"
                }
            ],
            "stateMutability": "view",
            "type": "function"
        },
        {
            "inputs": [],
            "name": "getCreationFeeUSDC",
            "outputs": [
                {
                    "internalType": "uint256",
                    "name": "",
                    "type": "uint256"
                }
            ],
            "stateMutability": "view",
            "type": "function"
        },
        {
            "inputs": [],
            "name": "getCreationFeeXFI",
            "outputs": [
                {
                    "internalType": "uint256",
                    "name": "",
                    "type": "uint256"
                }
            ],
            "stateMutability": "view",
            "type": "function"
        },
        {
            "inputs": [],
            "name": "getFeeCollectorAddress",
            "outputs": [
                {
                    "internalType": "address",
                    "name": "",
                    "type": "address"
                }
            ],
            "stateMutability": "view",
            "type": "function"
        },
        {
            "inputs": [],
            "name": "getPriceInfo",
            "outputs": [],
            "stateMutability": "nonpayable",
            "type": "function"
        },
        {
            "inputs": [],
            "name": "getTransactionFee",
            "outputs": [
                {
                    "internalType": "uint256",
                    "name": "",
                    "type": "uint256"
                }
            ],
            "stateMutability": "view",
            "type": "function"
        },
        {
            "inputs": [],
            "name": "getTransactionFeeETH",
            "outputs": [
                {
                    "internalType": "uint256",
                    "name": "",
                    "type": "uint256"
                }
            ],
            "stateMutability": "view",
            "type": "function"
        },
        {
            "inputs": [],
            "name": "getTransactionFeeXFI",
            "outputs": [
                {
                    "internalType": "uint256",
                    "name": "",
                    "type": "uint256"
                }
            ],
            "stateMutability": "view",
            "type": "function"
        },
        {
            "inputs": [],
            "name": "latestPrice",
            "outputs": [
                {
                    "internalType": "uint256",
                    "name": "",
                    "type": "uint256"
                }
            ],
            "stateMutability": "view",
            "type": "function"
        },
        {
            "inputs": [],
            "name": "requiredValueInWei",
            "outputs": [
                {
                    "internalType": "uint256",
                    "name": "",
                    "type": "uint256"
                }
            ],
            "stateMutability": "view",
            "type": "function"
        },
        {
            "inputs": [],
            "name": "timestampOflatestPrice",
            "outputs": [
                {
                    "internalType": "uint256",
                    "name": "",
                    "type": "uint256"
                }
            ],
            "stateMutability": "view",
            "type": "function"
        },
        {
            "inputs": [],
            "name": "transactionFee",
            "outputs": [
                {
                    "internalType": "uint256",
                    "name": "",
                    "type": "uint256"
                }
            ],
            "stateMutability": "view",
            "type": "function"
        }
    ],
    "bytecode": "0x610220346103cc57601f610bd238819003918201601f19168301916001600160401b038311848410176103d1578084926020946040528339810103126103cc57516001600160a01b038116908190036103cc5773c02aaa39b223fe8d0a0e5c4f27ead9083c756cc26080526509184e72a0006003556509184e72a000600455600260065573639fe6ab55c921f74e7fac1ee960c0b6293ba61260a05273b2a824043730fe05f3da2efafa1cbbe83fa548d660c0527350834f3163758fcc1df9973b6e91f0f0f0434ad360e05273d30e2101a97dcbaebcbc04f14c3f624e67a351656101005273d1092a65338d049db68d7be6bd89d17a0929945e61012052730153002d20b96532c639313c2d54c3da091093096101405273694aa1769357215de4fac081bf1f309adc3253066101605273b2a824043730fe05f3da2efafa1cbbe83fa548d66101805273a2f78ab2355fe2f984d808b5cee7fd0a93d5270e6101a0527333df80cdf0c9ff686261b11263d9f4a3ccc3d07f6101c05273dac17f958d2ee523a2206206994597c13d831ec76101e05273a2f78ab2355fe2f984d808b5cee7fd0a93d5270e61020052600160075560016008556000600955624c4b40600a55621e8480600b55620f4240600c5580156103bb57600580546001600160a01b0319169190911790554661a4b1036102d157600080546001600160a01b031990811673639fe6ab55c921f74e7fac1ee960c0b6293ba6121790915560018054821673b2a824043730fe05f3da2efafa1cbbe83fa548d6179055600280549091167350834f3163758fcc1df9973b6e91f0f0f0434ad31790555b6040516107ea90816103e882396080518181816102580152818161036801526105ef015260a05181505060c05181505060e05181505061010051815050610120518150506101405181505061016051815050610180518150506101a0518150506101c0518150506101e05181505061020051815050f35b4662066eee0361034657600080546001600160a01b031990811673d30e2101a97dcbaebcbc04f14c3f624e67a351651790915560018054821673d1092a65338d049db68d7be6bd89d17a0929945e17905560028054909116730153002d20b96532c639313c2d54c3da0910930917905561025a565b62aa36a7460361025a57600080546001600160a01b031990811673694aa1769357215de4fac081bf1f309adc3253061790915560018054821673b2a824043730fe05f3da2efafa1cbbe83fa548d61790556002805490911673a2f78ab2355fe2f984d808b5cee7fd0a93d5270e17905561025a565b630a069e3d60e11b60005260046000fd5b600080fd5b634e487b7160e01b600052604160045260246000fdfe608080604052600436101561001357600080fd5b60003560e01c90816327f01afa1461066457508063330227bf1461058d5780633408e47014610572578063455ea3e8146104da57806385d79102146104bc5780639ed3edf0146104bc578063a3e6ba941461049e578063ab35c79e14610406578063b904705a14610324578063b9592f7b14610306578063bf2d75fb146101cf578063c8c9e89314610214578063db07b68e146101f6578063dce0b4e4146101f6578063f108e225146101cf578063f3382c53146100fd5763fa351e6c146100da57600080fd5b346100f85760003660031901126100f8576020600854604051908152f35b600080fd5b346100f85760003660031901126100f857600460a06001600160a01b036001541660405192838092633fabe5a360e21b82525afa9081156101c35760009161018f575b50600a54670de0b6b3a7640000810290808204670de0b6b3a764000014901517156101795760209161017191610756565b604051908152f35b634e487b7160e01b600052601160045260246000fd5b6101b1915060a03d60a0116101bc575b6101a981836106d2565b810190610721565b505050905081610140565b503d61019f565b6040513d6000823e3d90fd5b346100f85760003660031901126100f85760206001600160a01b0360055416604051908152f35b346100f85760003660031901126100f8576020600354604051908152f35b346100f85760003660031901126100f857604080516304b01c2560e51b81526020600482015260076024820152661611924bd554d160ca1b604482015290816064817f00000000000000000000000000000000000000000000000000000000000000006001600160a01b03165afa9081156101c3576000916102d6575b50600b5490670de0b6b3a7640000820291808304670de0b6b3a76400001490151715610179576020916fffffffffffffffffffffffffffffffff610171921690610756565b6102f8915060403d6040116102ff575b6102f081836106d2565b810190610793565b5081610291565b503d6102e6565b346100f85760003660031901126100f8576020600954604051908152f35b346100f85760003660031901126100f857604080516304b01c2560e51b81526020600482015260076024820152661611924bd554d160ca1b604482015290816064817f00000000000000000000000000000000000000000000000000000000000000006001600160a01b03165afa9081156101c3576000916103e6575b50600c5490670de0b6b3a7640000820291808304670de0b6b3a76400001490151715610179576020916fffffffffffffffffffffffffffffffff610171921690610756565b6103ff915060403d6040116102ff576102f081836106d2565b50816103a1565b346100f85760003660031901126100f857600460a06001600160a01b036000541660405192838092633fabe5a360e21b82525afa9081156101c35760009161047a575b50600b54670de0b6b3a7640000810290808204670de0b6b3a764000014901517156101795760209161017191610756565b610493915060a03d60a0116101bc576101a981836106d2565b505050905081610449565b346100f85760003660031901126100f8576020600754604051908152f35b346100f85760003660031901126100f8576020600454604051908152f35b346100f85760003660031901126100f857600460a06001600160a01b036000541660405192838092633fabe5a360e21b82525afa9081156101c35760009161054e575b50600c54670de0b6b3a7640000810290808204670de0b6b3a764000014901517156101795760209161017191610756565b610567915060a03d60a0116101bc576101a981836106d2565b50505090508161051d565b346100f85760003660031901126100f8576020604051468152f35b346100f85760003660031901126100f8576040516304b01c2560e51b815260206004820152600860248201527f574554482f55534400000000000000000000000000000000000000000000000060448201526040816064816001600160a01b037f0000000000000000000000000000000000000000000000000000000000000000165afa9081156101c3576fffffffffffffffffffffffffffffffff91600091600091610641575b50821660085516600755005b83925061065d915060403d6040116102ff576102f081836106d2565b9091610635565b346100f85760003660031901126100f85760a0816004816001600160a01b0360025416633fabe5a360e21b82525afa9081156101c35760009161018f5750600a54670de0b6b3a7640000810290808204670de0b6b3a764000014901517156101795760209161017191610756565b90601f8019910116810190811067ffffffffffffffff8211176106f457604052565b634e487b7160e01b600052604160045260246000fd5b519069ffffffffffffffffffff821682036100f857565b908160a09103126100f8576107358161070a565b9160208201519160408101519161075360806060840151930161070a565b90565b8115610760570490565b634e487b7160e01b600052601260045260246000fd5b51906fffffffffffffffffffffffffffffffff821682036100f857565b91908260409103126100f85761075360206107ad84610776565b930161077656fea264697066735822122027b783b061b3fea1c1fa5d084afed99b54e7909e379c355340b606b6f3657a1764736f6c634300081c0033",
    "linkReferences": {},
    "deployedLinkReferences": {}
}